:100000000C9463000C948B000C948B000C943D03B7
:100010000C943D030C943D030C948B000C94080647
:100020000C948B000C94CB020C948B000C94470521
:100030000C948B000C948B000C948B000C948B0014
:100040000C9481020C948B000C948B000C948B000C
:100050000C948B000C948B000C948B000C948B00F4
:100060000C948B000C948B000000000024002700EF
:100070002A0000000000250028002B0000000000DE
:1000800023002600290004040404040404040202DA
:100090000202020203030303030301020408102007
:1000A0004080010204081020010204081020000012
:1000B0000008000201000003040700000000000027
:1000C00000004C12421211241FBECFEFD8E0DEBF59
:1000D000CDBF11E0A0E0B1E0E2E4FCE202C0059097
:1000E0000D92A431B107D9F722E0A4E1B1E001C03B
:1000F0001D92A43AB207E1F710E0C2E6D0E004C0D6
:100100002197FE010E940916C136D107C9F70E9446
:1001100042080C9414160C940000CF92DF92EF92D8
:10012000FF920F931F93CF93DF936C017A018B01A2
:10013000C0E0D0E0CE15DF0589F0D8016D918D01CA
:10014000D601ED91FC910190F081E02DC601099559
:10015000892B11F47E0102C02196ECCFC701DF91FB
:10016000CF911F910F91FF90EF90DF90CF90089566
:10017000833081F028F4813099F08230A1F0089525
:100180008730A9F08830B9F08430D1F480918000B4
:100190008F7D03C0809180008F77809380000895C9
:1001A00084B58F7702C084B58F7D84BD089580911A
:1001B000B0008F7703C08091B0008F7D8093B00036
:1001C00008951F93CF93DF93282F30E0F901E25574
:1001D000FF4F8491F901E656FF4FD491F901EA5798
:1001E000FF4FC491CC23C9F0162F81110E94B80093
:1001F000EC2FF0E0EE0FFF1FEE58FF4FA591B491EA
:100200008FB7F894111105C09C91ED2FE095E9236B
:1002100002C0EC91ED2BEC938FBFDF91CF911F913A
:1002200008953FB7F89480918F0290919002A09129
:100230009102B091920226B5A89B05C02F3F19F0FC
:100240000196A11DB11D3FBFBA2FA92F982F882756
:10025000820F911DA11DB11DBC01CD0142E0660FB1
:10026000771F881F991F4A95D1F70895209116018D
:10027000309117012817390771F49091140180917A
:100280001501981741F0E0911401F0E0E25BFD4F99
:10029000808190E008958FEF9FEF089508951F9358
:1002A000CF93DF93DC015C962D913C915D972115F6
:1002B000310539F481E090E013969C938E93129768
:1002C0003DC05196ED91FC91529750969C9150975C
:1002D000892F80951FB75E964C915E9741FB7727DB
:1002E00070F941FD6095F8944081772311F0492B16
:1002F00001C048234083E9012197F1F748E050818C
:1003000060FF02C0592B01C058235083E901219797
:10031000F1F76695415099F7772321F09081892371
:10032000808303C08081982B90831FBF5C968D9142
:100330009C915D970197F1F721E030E0C901DF91D1
:10034000CF911F9108952091160130911701281720
:10035000390771F4809115012091140190E0805CBF
:100360009F4F821B910960E470E00E94AA150895D6
:1003700080E090E008952091160130911701281730
:100380003907B9F49091140180911501981789F0FB
:10039000E0911401F0E0E25BFD4F808120911401B7
:1003A00030E02F5F3F4F2F7333272093140190E0ED
:1003B00008958FEF9FEF0895089580E090E00895ED
:1003C0000E940F16CF93DF93282F30E0F901E255FA
:1003D000FF4F8491F901E656FF4FD491F901EA5796
:1003E000FF4FC491CC2391F081110E94B800EC2FF3
:1003F000F0E0EE0FFF1FE458FF4FA591B491EC9190
:10040000ED2381E090E021F480E002C080E090E004
:10041000DF91CF910895CF93DF9390E0FC01E656F2
:10042000FF4F2491FC01EA57FF4F8491882361F12B
:1004300090E0880F991FFC01E859FF4FC591D491B6
:10044000FC01EE58FF4FA591B491611109C09FB70F
:10045000F8948881209582238883EC912E230BC009
:10046000623061F49FB7F8943881822F809583239E
:100470008883EC912E2B2C939FBF06C08FB7F894E6
:10048000E8812E2B28838FBFDF91CF9108958F9223
:100490009F92AF92BF92CF92DF92EF92FF926B0149
:1004A0007C010E9411014B015C01C114D104E104E3
:1004B000F104F1F00E941101DC01CB0188199909C6
:1004C000AA09BB09883E9340A105B10570F321E05C
:1004D000C21AD108E108F10888EE880E83E0981E60
:1004E000A11CB11CC114D104E104F10419F7DDCF42
:1004F000FF90EF90DF90CF90BF90AF909F908F9044
:1005000008951F920F920FB60F9211242F933F93CD
:100510008F939F93AF93BF93809116029091170290
:10052000A0911802B091190230918E0223E0230F9E
:100530002D3720F40196A11DB11D05C026E8230F1B
:100540000296A11DB11D20938E02809316029093F6
:100550001702A0931802B093190280918F02909114
:100560009002A0919102B09192020196A11DB11D3D
:1005700080938F0290939002A0939102B093920285
:10058000BF91AF919F918F913F912F910F900FBE8F
:100590000F901F9018951F920F920FB60F92112473
:1005A0002F933F934F935F936F937F938F939F937B
:1005B000AF93BF93EF93FF9380911E0190911F0122
:1005C0008093B2008091210190912201A09123019A
:1005D000B09124010196A11DB11D8093210190933A
:1005E0002201A0932301B0932401809121019091D5
:1005F0002201A0912301B091240140911A01509150
:100600001B0160911C0170911D0184179507A607BD
:10061000B70710F18091200181111EC081E0809305
:1006200020018091210190912201A0912301B0919C
:100630002401841B950BA60BB70B8093210190938B
:100640002201A0932301B0932401E0911801F091BD
:100650001901099510922001FF91EF91BF91AF917F
:100660009F918F917F916F915F914F913F912F91CA
:100670000F900FBE0F901F9018951F920F920FB6FC
:100680000F9211242F933F934F935F936F937F9318
:100690008F939F93AF93BF93EF93FF93E0911601D6
:1006A000F0911701309709F451C0968DA685B78552
:1006B000858591FF04C09C91892329F447C09C91B2
:1006C000892309F043C0A389B4899C9185898095C9
:1006D00089238C93868997890197F1F7608D718DB5
:1006E000A685B785558538E020E0CB010197F1F765
:1006F000822F90E095958795282F4C91452309F0FE
:100700002068315091F7868D81FD209580911501EB
:1007100090E001968F73992730911401381749F0B2
:10072000A0911501B0E0A25BBD4F2C938093150101
:1007300003C0868D8160868F828D938D0197F1F73E
:10074000A389B4899C918589892B8C93FF91EF9122
:10075000BF91AF919F918F917F916F915F914F91D9
:100760003F912F910F900FBE0F901F901895E09121
:100770001601F0911701E817F90769F4A389B48904
:100780009C918589809589238C93109217011092F2
:10079000160181E0089580E008958F929F92AF92B4
:1007A000BF92CF92DF92EF92FF92FC01828128E507
:1007B00032E06901C81AD10887FDD394CC0CDD1C46
:1007C000CC0CDD1C0D2C000CEE08FF08818128E804
:1007D00030E04901881A910887FD9394880C991C90
:1007E000880C991C092C000CAA08BB0880818F3F3B
:1007F000C1F090E0FC01EE0FFF1F8E0F9F1FFC0168
:10080000E65DFD4F2181328143E0220F331F4A957F
:10081000E1F754E0369527955A95E1F72E5F3F4F63
:1008200002C020E030E02F5F3F4FC901330FAA0B19
:10083000BB0B9C01AD01281939094A095B09A4EBDE
:10084000B0E00E941113A7019601281939094A093D
:100850005B090E94F212C901FF90EF90DF90CF90E8
:10086000BF90AF909F908F900895CF92DF92EF92BC
:10087000FF92CF93DF93EC01603282E078070CF0B7
:100880003DC077FD06C0653B71052CF064EB70E060
:1008900002C060E070E0898128E830E06901C81A90
:1008A000D10887FDD394CC0CDD1CCC0CDD1C0D2CA9
:1008B000000CEE08FF088A8128E532E0281B310988
:1008C00087FD3395220F331F220F331FC901330FCA
:1008D000AA0BBB0B9C01AD012C193D094E095F0908
:1008E000DB010E941C1324EB30E040E050E00E944A
:1008F000F212C20ED31EE41EF51EB60188818C30A2
:1009000080F5998148E850E0491B510997FD5395BE
:10091000440F551F440F551F6417750784F09A81C3
:1009200028E532E0291B310997FD3395220F331F4B
:10093000220F331FAB01261737070CF4A9014250D1
:100940005109440F551F2FB7F89490E0FC01EE0FAA
:10095000FF1F8E0F9F1FFC01E65DFD4F52834183F9
:100960002FBFDF91CF91FF90EF90DF90CF90089550
:100970006EE670E08EE192E00E94350464E670E07D
:1009800080E090E00E94470264E670E08EE192E031
:100990000E94350464E670E080E090E00E94470227
:1009A00064E670E08EE192E00E94350481E080937D
:1009B000210264E670E080E090E00E9447026AE570
:1009C00070E08EE192E00E94350464E670E080E021
:1009D00090E00C9447021F93CF93DF93EC01162F06
:1009E00088818C3008F04EC061E0812F0E940B029C
:1009F0008881E82FF0E09F01220F331FE20FF31FE1
:100A0000E65DFD4F1F739081907C192B1083198236
:100A10001A826CE00E949E159CE0899FB00111240F
:100A200040E050E09A01260F371FF901EE0FFF1F3B
:100A30002E0F3F1FF901E65DFD4F908196FD16C018
:100A40004F5F5F4F4C30510569F781110FC0109215
:100A5000800082E0809381001092850010928400D3
:100A6000B19A80916F00826080936F00E881F0E01E
:100A7000CF01880F991FE80FF91FE65DFD4F8081B8
:100A8000806480838881DF91CF911F9108951F92A8
:100A90000F920FB60F9211242F933F934F935F93B2
:100AA0006F937F938F939F93AF93BF93EF93FF9336
:100AB0008091290287FF05C0109285001092840062
:100AC0001BC020912902022E000C330B80912802BA
:100AD00090E02817390784F480912902082E000C31
:100AE000990BFC01EE0FFF1F8E0F9F1FFC01E65DAF
:100AF000FD4F808186FD15C0809129028F5F809314
:100B0000290220912902022E000C330B8091280229
:100B100090E028173907C4F4809129028C3064F1E1
:100B200013C080912902082E000C990BFC01EE0FD6
:100B3000FF1F8E0F9F1FFC01E65DFD4F808160E06F
:100B40008F730E94E100D8CF80918400909185003E
:100B5000049680349C4918F480E49CE905C0809197
:100B6000840090918500049690938900809388007A
:100B70008FEF809329023BC0209184003091850043
:100B800080912902082E000C990BFC01EE0FFF1F2B
:100B90008E0F9F1FFC01E65DFD4F81819281820FC8
:100BA000931F909389008093880080912902082EDA
:100BB000000C990BFC01EE0FFF1F8E0F9F1FFC0115
:100BC000E65DFD4F808186FF12C080912902082ECC
:100BD000000C990BFC01EE0FFF1F8E0F9F1FFC01F5
:100BE000E65DFD4F808161E08F730E94E100FF911F
:100BF000EF91BF91AF919F918F917F916F915F9195
:100C00004F913F912F910F900FBE0F901F9018950D
:100C10001F920F920FB60F9211242F933F934F9371
:100C20005F936F937F938F939F93AF93BF93EF9354
:100C3000FF93809145010E94E2012091490130918A
:100C40004A012F5F3F4F30934A0120934901909111
:100C50004801953618F096E0909344019091440134
:100C60009430C9F128F4923069F09330D1F05EC02D
:100C7000953009F451C0963009F058C091E0909336
:100C8000150251C0811152C02091490130914A0191
:100C90002436310508F442C0109215021092480122
:100CA0001CC0813009F042C0E091480191E09E0FE4
:100CB00090934801F0E02091490130914A01EE0FF4
:100CC000FF1FEC5BFE4F3087278310924A01109282
:100CD000490194E029C0811117C0E091480191E0D9
:100CE0009E0F90934801F0E02091490130914A0114
:100CF000EE0FFF1FEC5BFE4F3087278310924A01F7
:100D00001092490193E010C02091490130914A01AD
:100D10002536310558F007C0811108C010924A01EC
:100D20001092490103C095E09093440190914701CE
:100D30009923B9F081110AC080914601882321F0DE
:100D40008091460161E009C02D9A0BC08091460157
:100D5000882331F08091460160E00E94E10001C0EB
:100D60002D98FF91EF91BF91AF919F918F917F91BE
:100D70006F915F914F913F912F910F900FBE0F9008
:100D80001F901895CF92DF92EF92FF92CF93DF934F
:100D9000EC01072E000C880B990B0E9471146B015B
:100DA0007C0120E030E040E45FE30E94211520E078
:100DB00030E048E452E40E94C7130E943914C61779
:100DC000D707D4F020E030E040EA5FE3C701B60186
:100DD0000E94211520E030E048E452E40E94C7134D
:100DE00020E030E040E85FE30E9456130E9439148F
:100DF00021E06C177D070CF420E0822F90E0DF915A
:100E0000CF91FF90EF90DF90CF90089566E470E06F
:100E10008BE192E00E94350464E670E080E090E0AF
:100E20000E94470260E570E08BE192E00E94350489
:100E300064E670E080E090E00E94470260E570E0C8
:100E40008BE192E00E94350410921A0264E670E091
:100E500080E090E00E9447026AE570E08BE192E05A
:100E60000E94350464E670E080E090E00C94470254
:100E70006EE670E08BE192E00E94350464E670E07B
:100E800080E090E00E94470264E670E08BE192E02F
:100E90000E94350464E670E080E090E00E94470222
:100EA00064E670E08BE192E00E94350481E080937B
:100EB0001A0264E670E080E090E00E9447026AE572
:100EC00070E08BE192E00E94350464E670E080E01F
:100ED00090E00C94470266E470E08EE192E00E949C
:100EE000350464E670E080E090E00E94470260E52F
:100EF00070E08EE192E00E94350464E670E080E0EC
:100F000090E00E94470260E570E08EE192E00E946E
:100F100035041092210264E670E080E090E00E94C7
:100F200047026AE570E08EE192E00E94350464E6D3
:100F300070E080E090E00C944702CF93C0E561E060
:100F400087E00E94E10061E070E080E090E00E94B4
:100F5000470260E087E00E94E10061E070E080E02D
:100F600090E00E944702C15051F7C4E661E087E07B
:100F70000E94E10062E070E080E090E00E944702A1
:100F800060E087E00E94E10062E070E080E090E0D5
:100F90000E944702C15051F7CF9108958F929F92BE
:100FA000AF92BF92CF92DF92EF92FF920F931F9377
:100FB000CF93DF93FC01C081D18120919F023091BA
:100FC000A002C217D3070CF04BC09E01220F331FA3
:100FD000E0919D02F0919E02E20FF31F80809180CC
:100FE000C170DD27F1E0CF27209719F404E610E067
:100FF00002C00CE91FEF7A015B016C01040F151FA1
:10100000B801C4010E94C206892B99F40E0D1F1D60
:10101000B801C4010E94C206892B71F4B8016E0D9B
:101020007F1DC4010E94C206892BE9F023E030E055
:1010300005C021E030E002C022E030E0F50180810F
:1010400091810196821793073CF0F501118210827D
:10105000F60180819181019691838083CE0105C044
:1010600081E090E002C08FEF9FEFDF91CF911F9161
:101070000F91FF90EF90DF90CF90BF90AF909F9037
:101080008F900895CF93DF93CDB7DEB72C970FB62F
:10109000F894DEBF0FBECDBF789484B5826084BD66
:1010A00084B5816084BD85B5826085BD85B581606C
:1010B00085BD80916E00816080936E0010928100EA
:1010C00080918100826080938100809181008160A5
:1010D0008093810080918000816080938000809166
:1010E000B10084608093B1008091B00081608093F2
:1010F000B00080917A00846080937A0080917A00B9
:10110000826080937A0080917A00816080937A0077
:1011100080917A00806880937A001092C10060E02C
:1011200085E00E940B0260E086E00E940B0261E015
:1011300087E00E940B02F89482E08093B0008093D5
:10114000B10094E69093B3001092B20080937000C7
:10115000789480934401109248018091450160E0A9
:101160000E940B0260E08EE00E940B0269E070E0DA
:101170008EE192E00E94EB046AE070E08BE192E085
:101180000E94EB041092400110923F0110923E0128
:1011900010923D0110923C0110923B018DE991E0CB
:1011A000909342018093410190913101963108F072
:1011B00057C02DEB30E030933C0120933B012BE9ED
:1011C00031E030933E0120933D012CE231E0309339
:1011D000400120933F0120916800983050F031E0A9
:1011E0009E3008F430E081E001C0880F3A95EAF7BC
:1011F00001C084E0822B80936800983038F09E30E4
:1012000040F0963148F020E030E008C02DE630E0B4
:1012100005C02BE630E002C02CE630E03093390107
:1012200020933801983030F481E001C0880F9A95FE
:10123000EAF70EC0292F30E09E3018F4285031090B
:1012400002C02E50310981E001C0880F2A95EAF7CB
:1012500080933A0180914101909142010197F1F709
:1012600080913F0190914001892B21F180911601DD
:101270009091170121E085329207E1F0009711F07B
:101280000E94B703809143018E7F809343011092A7
:1012900015011092140185E291E09093170180935B
:1012A0001601E0913801F0913901908180913A0165
:1012B000892B808360E570E08EE192E00E94350426
:1012C00060E570E08BE192E00E94350480910001BE
:1012D00090910101092E000CAA0BBB0B0097A105F0
:1012E000B10521F481E090E0A0E0B0E080931A0124
:1012F00090931B01A0931C01B0931D0188EB94E017
:101300009093190180931801809170008E7F8093D3
:1013100070008091B0008C7F8093B0008091B1000C
:10132000877F8093B1008091B6008F7D8093B60057
:10133000809170008D7F809370008091B1008460F7
:101340008093B1008091B1008C7F8093B10086E0E2
:1013500090E090931F0180931E0110922101109242
:1013600022011092230110922401109220018091F9
:101370001E0190911F018093B200809170008160E6
:101380008093700010E2212E312C44244A94542C76
:1013900032018BE491E090939E0280939D028091B4
:1013A000480190E09093A00280939F0280911502E3
:1013B00090E09093A2028093A10280914401853035
:1013C00009F0A5C380914D0190914E018858910973
:1013D0008D35910588F480914801843041F48091E5
:1013E0004F01909150018097479708F424C2809153
:1013F0004801843408F0CCC1809148018A3108F456
:101400004FC080914B0190914C01843F914068F412
:1014100010929C0210929B02409297025092980266
:101420006092990270929A0259C080914D019091F8
:101430004E0185974B97A0F5E1E5F1E082E090E061
:10144000C12CD12C7601AC014F5F5F4F2091480138
:1014500030E0421753075CF4DF0112972D913C9165
:10146000275031092730310508F496C3CA01019786
:101470009595879590939C0280939B020C972CF4F2
:1014800010929C0210929B020BC0C0929702D092C5
:101490009802E0929902F0929A0284E090E0C6C12C
:1014A000809148018A3108F44CC080914B019091A1
:1014B0004C018032934008F4ABCF80914D01909164
:1014C0004E01C697869708F484C33BC0C09297022A
:1014D000D0929802E0929902F0929A028BE090E00A
:1014E000A5C120813181255231092B31310508F008
:1014F00080C3CC0CDD1CEE1CFF1C6894C0F8029667
:101500003496AC014F5F5F4F2091480130E04217A5
:10151000530754F4DF0112972D913C912C5031095F
:101520002B303105F0F2CA0101979595879590937C
:101530009C0280939B020C974CF610929C02109296
:101540009B02809148018232E0F180914D0190919F
:101550004E0106970797A8F5E1E5F1E022E030E0BB
:10156000C12CD12C7601C90101964091480150E06F
:101570008417950764F4DF0112974D915C911197E0
:101580004E5151094731510508F458C33FC3C901B1
:1015900001979595879590939C0280939B02409725
:1015A0002CF410929C0210929B020BC0C0929702E6
:1015B000D0929802E0929902F0929A028CE090E028
:1015C00035C11C821B8281E090E09A8389838091DF
:1015D00048018D3008F46BC049E753E0BE016D5FF0
:1015E0007F4FCE0101960E94CE07892B09F05FC084
:1015F00049E753E0BE016D5F7F4FCE0101960E9427
:10160000CE07019709F053C049E753E0BE016D5F73
:101610007F4FCE0101960E94CE07892B09F047C06B
:10162000812C912C540100E010E08091480190E061
:1016300029813A81281739075CF549E753E0BE0153
:101640006D5F7F4FCE0101960E94CE077C0149E776
:1016500053E0BE016D5F7F4FCE0101960E94CE0721
:10166000A1E0EA16F10449F4892B09F5880C991CCC
:10167000AA1CBB1C689480F808C0EF28C1F401972D
:10168000B1F4880C991CAA1CBB1C0F5F1F4FCDCF57
:1016900010939C0200939B02809297029092980272
:1016A000A0929902B0929A02E1E0F0E0ACC01C82F4
:1016B0001B8221E030E03A83298380919F02909140
:1016C000A002181619060CF058C0E0919D02F09186
:1016D0009E0282E090E09A83898382819381899738
:1016E0004E9708F04AC083E090E09A838983848112
:1016F00095810B970A9708F040C04CEB51E0BE0172
:101700006D5F7F4FCE0101960E94CE07892BA9F510
:101710004CEB51E0BE016D5F7F4FCE0101960E9400
:10172000CE07019751F5812C912C540100E010E077
:1017300029813A8180919F029091A0022817390750
:101740000CF066C04CEB51E0BE016D5F7F4FCE01E7
:1017500001960E94CE076C010330110509F075C295
:101760004CEB51E0BE016D5F7F4FCE0101960E94B0
:10177000CE07C816D90609F468C2E0919D02F0911F
:101780009E0282819381C697869708F494C242C3D1
:1017900080914F0190915001825491098E9708F0E9
:1017A0002BCE80E090E040E050E0BA01FC01EF5A1F
:1017B000FE4F20813181295031092930310508F04F
:1017C0001BCEFC01ED5AFE4F20813181275131099A
:1017D0002231310508F0D3C1440F551F661F771F12
:1017E000416004968038910509F730929C0220925E
:1017F0009B024093970250939802609399027093D2
:101800009A02E3E0F0E0F0939402E09393022DC09B
:1018100010939C0200939B028092970290929802F0
:10182000A0929902B0929A0282E090E09093940282
:10183000809393021AC080915101909152010997AF
:10184000099708F0D4CD10929C0210929B0240920E
:101850009702509298026092990270929A02A3E0C5
:10186000B0E0B0939402A09393028091970290917C
:101870009802A0919902B0919A028D35924AAF4F89
:10188000B10579F40E949D0780912102882309F413
:101890006AC20E946B0764EF71E080E090E00E94F2
:1018A00047028091970290919802A0919902B0917D
:1018B0009A028D399246AF4FB10509F457C2809113
:1018C000970290919802A0919902B0919A02873E56
:1018D0009841AF4FB105F1F40E949D078EE192E06F
:1018E0000E94CD03BC016B5F7F4F8EE192E00E94AE
:1018F00035048BE192E00E94CD03BC016B5F7F4F0A
:101900008BE192E00E94350464EF71E080E090E0AA
:101910000E9447028091970290919802A0919902AB
:10192000B0919A02853B9A44AF4FB105F1F40E9401
:101930009D078EE192E00E94CD03BC0165507109C4
:101940008EE192E00E9435048BE192E00E94CD038B
:10195000BC01655071098BE192E00E94350464EF8F
:1019600071E080E090E00E944702809197029091A0
:101970009802A0919902B0919A028D31924EAF4F88
:10198000B105F1F40E949D0781E0809321022FB7F9
:10199000F8948091160290911702A0911802B091CC
:1019A00019022FBF8093240290932502A093260250
:1019B000B093270262E370E080E090E00E9447026B
:1019C0008091970290919802A0919902B0919A0209
:1019D0008D3D9242AF4FB105E9F40E949D071092F0
:1019E00021022FB7F8948091160290911702A091CE
:1019F0001802B09119022FBF809324029093250200
:101A0000A0932602B093270262E370E080E090E0AA
:101A10000E9447028091970290919802A0919902AA
:101A2000B0919A028D3F9240AF4FB10549F40E94A8
:101A30009D0781E080932302109201011092000122
:101A40008091970290919802A0919902B0919A0288
:101A50008D33924CAF4FB10549F40E949D0781E050
:101A6000809322021092010110920001809197024E
:101A700090919802A0919902B0919A028F31904E64
:101A8000AF4FB10531F40E949D07109223021092CE
:101A900022028091970290919802A0919902B091B0
:101AA0009A028735984AAF4FB10509F471C1809108
:101AB000970290919802A0919902B0919A028F3664
:101AC0009049AF4FB10509F479C180919702909187
:101AD0009802A0919902B0919A0287369849AF4F27
:101AE000B10509F481C18091970290919802A0916B
:101AF0009902B0919A02873C9843AF4FB10511F417
:101B00000E949D0782E0809344011092480162E3A5
:101B100070E080E090E00E94470285E00E94E201D0
:101B2000019789F40E949D0780912102882319F072
:101B30000E946B0702C00E94B80464EF71E080E06D
:101B400090E00E94470286E00E94E201019779F44A
:101B500080911A02882319F00E94060702C00E9491
:101B6000380764EF71E080E090E00E94470280E077
:101B700090E0892B09F40DCC0E9400000ACC208152
:101B80003181265031092730310508F035CC440F1A
:101B9000551F661F771F25CE2081318123513109C2
:101BA0002F30310578F0208131812A5031092930D8
:101BB000310508F075CCCC0CDD1CEE1CFF1C029628
:101BC000349641CCCC0CDD1CEE1CFF1C6894C0F894
:101BD000F6CF80914F0190915001C697869708F0FB
:101BE000B0CCE3E5F1E083E090E0C12CD12C7601AC
:101BF00088CC208131812C5031092A30310508F000
:101C0000A0CCCC0CDD1CEE1CFF1C79CC4D915C9162
:101C10004C5051094B30510508F0D3CCCC0CDD1C95
:101C2000EE1CFF1C408151813496435051094530D0
:101C3000510508F0ADCC2E5F3F4F95CCCC0CDD1C90
:101C4000EE1CFF1C6894C0F8EDCF4CEB51E0BE01D8
:101C50006D5F7F4FCE0101960E94CE077C0103305D
:101C6000110569F44CEB51E0BE016D5F7F4FCE0171
:101C700001960E94CE07E816F90609F07ECDC11440
:101C8000D10459F4EA94EF2809F077CD880C991C17
:101C9000AA1CBB1C689480F80BC0CA94CD2809F01C
:101CA0006CCDEF2809F069CD880C991CAA1CBB1CCF
:101CB0000F5F1F4F3DCD848195814B97459708F06D
:101CC000A9C0DF0116967F0196ECE90EF11C20E019
:101CD00030E040E050E060E070E080E090E00D91A6
:101CE0001C911197095011090830110508F092C094
:101CF00012960D911C911397015111090D30110588
:101D000020F501E00E94BE1521601496AE15BF05B6
:101D100031F72093970230939802409399025093A1
:101D20009A0200E20E94D915209395023093960200
:101D300085E090E0909394028093930280E390E09A
:101D400090939C0280939B0290CD12960D911C91D2
:101D50001397045011090530110508F05BC001E02C
:101D60000E94BE15D2CF0E94B80495CD0E949D0757
:101D700080912102882319F00E94060702C00E9468
:101D8000380764EF71E080E090E00E94470297CD51
:101D90000E949D0780912302811105C0809122023B
:101DA000882309F484CE8091000190910101885725
:101DB0009C4E909301018093000179CE0E949D0773
:101DC00080912302811105C080912202882309F4A9
:101DD0007CCE8091000190910101805F984D90939D
:101DE00001018093000171CE0E949D078091230222
:101DF000811105C080912202882309F474CE80915C
:101E0000000190910101805E914B909301018093BC
:101E1000000169CE80914801893370F182819381FC
:101E2000895791098335910508F46FC125C0D901FF
:101E300012966D917C91139766517109613171050C
:101E400008F08FC1D701C601880F991FAA1FBB1FB9
:101E50006C017D016894C0F84E5F5F4F2C5F3F4F6F
:101E60004B33510509F460C1D9016D917C916A50E1
:101E7000710969307105D8F280914801823231F4DC
:101E8000828193810A97099708F47BC182819381AB
:101E90008957910983359105D0F4809148018132A9
:101EA000B0F084819581CA97899788F49F012A5F51
:101EB0003F4FC12CD12C760143E050E0D9016D9108
:101EC0007C916A5071096930710508F476C182818C
:101ED00093818C549109C59778F48091480184309E
:101EE00031F4848195818097479708F4C6C1809129
:101EF0004801843408F0A8C180914801863460F11B
:101F0000828193810C970B9708F402C225C0D901F6
:101F100012966D917C9113976E517109673171051D
:101F200008F011C2D701C601880F991FAA1FBB1F55
:101F30006C017D016894C0F84E5F5F4F2C5F3F4F8E
:101F40004534510509F40EC2D9016D917C916C5054
:101F500071096B307105D8F280914801883578F1AC
:101F600082819381855891098B35910508F415C2BA
:101F700026C0BC016F5F7F4FD8014D915C914750E7
:101F800051094730510508F017C2220F331F216055
:101F900002960C5F1F4F4091480150E04450510998
:101FA000841795070CF011C2A80142505109DA01BB
:101FB0004D915C914950510948305105D0F28091C2
:101FC00048018032E1F48281938106970697B8F444
:101FD000848195810997099790F49F012A5F3F4F6B
:101FE000BF01625C7F4FC12CD12C7601D9014D918C
:101FF0005C91465051094630510508F402C22091C7
:102000009F023091A00238872F83263031050CF4CF
:1020100079CD8F010A5F1F4F95ECC92E9DE9D92E0E
:102020009CE1E92E91E8F92E83E090E09E838D8378
:10203000D8016D917C91F8013497A080B18080E047
:1020400090E00E946F1469877A878B879C87B5011F
:1020500080E090E00E946F144B015C012DEC3CECA1
:102060004CE45FE30E9421159B01AC0169857A85F0
:102070008B859C850E94C21387FD19C02DEC3CEC1A
:102080004CE45FE369857A858B859C850E942115E8
:102090009B01AC01C501B4010E94C213E82F880F57
:1020A000FF0BEE27FF0FEE1FFF27319602C0E0E087
:1020B000F0E0A701960163E971E080E091E00E9401
:1020C0008E156F01FF0FEE08FF08C626D726E826FB
:1020D000F926ED81FE813196FE83ED830E5F1F4F61
:1020E0002F813885E217F30709F0A2CFC09297023B
:1020F000D0929802E0929902F0929A0230929C0259
:1021000020929B028FEF9FEF91CB84819581CA979C
:10211000899708F0B1CE9F012A5F3F4FC12CD12C87
:10212000760143E050E0A0CE9F012A583F4FD901ED
:102130002D913C912A5031092930310508F09CCE6F
:102140002CE130E030939C0220939B02C0929702D6
:10215000D0929802E0929902F0929A028AE090E07E
:1021600065CBD90112966D917C91139766507109D8
:102170006730710508F080CECC0CDD1CEE1CFF1C16
:102180006BCE20914801CF01820F911D820F911DCE
:10219000DC0112978D919C910A97099708F076CEF1
:1021A00010929C0210929B024092970250929802C9
:1021B0006092990270929A025EC1D90112966D9155
:1021C0007C911397665171096131710568F5D701EA
:1021D000C601880F991FAA1FBB1F6C017D0168945F
:1021E000C0F84E5F5F4F2C5F3F4F4332510509F0FF
:1021F00065CE9F012A5B3F4FD9012D913C912A501A
:1022000031092930310508F062CEE0E1F0E0F093C9
:102210009C02E0939B02C0929702D0929802E092B7
:102220009902F0929A0227C1D90112966D917C9180
:102230001397665071096730710508F048CECC0CD1
:10224000DD1CEE1CFF1CCDCF848195818954910942
:10225000C39708F051CE9F012A5F3F4FBF016A57D5
:102260007F4FC12CD12C7601D9014D915C91495001
:10227000510949305105A0F03FCE868197810997D9
:10228000099708F034CE10929C0210929B02409263
:102290009702509298026092990270929A0225C019
:1022A000D90112964D915C911397465151094131D4
:1022B0005105F0F4D701C601880F991FAA1FBB1F53
:1022C0006C017D016894C0F82C5F3F4F26173707DB
:1022D00059F630929C0220929B02C0929702D092B3
:1022E0009802E0929902F0929A02E7E0F0E08BCA3D
:1022F000D90112964D915C91139746505109473080
:10230000510508F0F9CDCC0CDD1CEE1CFF1CDCCF18
:10231000848195810997099708F01ECE868197815F
:102320008C974F9708F018CE8085918589974D97A7
:1023300008F012CE9F01265F3F4FC12CD12C7601B1
:1023400045E050E001CE12966D917C911397695053
:1023500071096930710508F0FFCDCC0CDD1CEE1C55
:10236000FF1CEACD9F0126573F4FD9012D913C918B
:102370002C5031092B30310508F0EECD30929C0203
:1023800020929B02C0929702D0929802E09299020A
:10239000F0929A0288E090E049CA84819581825443
:1023A00091098E9708F00BCE8F01045C1F4F8DE1D1
:1023B00090E020E030E0EFCDD8014D915C914851A4
:1023C000510942315105D0F0CB0101979595879580
:1023D00090939C0280939B028A970CF4F0CDC901E4
:1023E000330FAA0BBB0B8093970290939802A09394
:1023F0009902B0939A0289E090E018CA220F331F25
:10240000C7CDD90112964D915C911397495151094D
:102410004331510528F112964D915C911397495023
:1024200051094930510508F0EACDCC0CDD1CEE1CF9
:10243000FF1C2C5F3F4F2617370709F0D7CD2EE042
:1024400030E030939C0220939B02C0929702D0927E
:102450009802E0929902F0929A028FE090E0E6C929
:10246000D701C601880F991FAA1FBB1F6C017D01F0
:102470006894C0F8DECF26E030E0309394022093D9
:102480009302F3C986E091E09093260180932501A1
:1024900085E291E00C94B7038CE0809345011092A3
:1024A0004701809128028C30A0F491E0980F90931E
:1024B000280280931E0290E0FC01EE0FFF1F8E0F9A
:1024C0009F1FFC01E65DFD4F88EB9BE092838183BB
:1024D00003C08FEF80931E02809128028C30A0F4FD
:1024E00091E0980F9093280280931B0290E0FC01EA
:1024F000EE0FFF1F8E0F9F1FFC01E65DFD4F88EB67
:102500009BE09283818303C08FEF80931B02109224
:1025100028011092270188EE93E0A0E0B0E08093BC
:10252000290190932A01A0932B01B0932C0186E0FE
:1025300091E0909326018093250110923C01109226
:102540003B0110923E0110923D0110924001109209
:102550003F011092420110924101609143016E7F50
:102560006D7F609343016695617081E068270E94EA
:10257000E10061E081E00E940B02EBE9F0E0E49110
:10258000E0933501E7E8F0E0E491F0E0EE0FFF1FA3
:10259000EE58FF4F859194919093370180933601C7
:1025A00060E080E00E940B028091430181FD04C045
:1025B00061E080E00E94E10010923101EAE9F0E080
:1025C000E491E0933201E6E8F0E0E491F0E0EE0F10
:1025D000FF1FE458FF4F85919491909334018093AD
:1025E00033010895052E97FB1EF400940E940913F1
:1025F00057FD07D00E94241307FC03D04EF40C941F
:10260000091350954095309521953F4F4F4F5F4F9F
:10261000089590958095709561957F4F8F4F9F4F4E
:1026200008950E944613A59F900DB49F900DA49FFE
:10263000800D911D11240895B7FF0C9411130E9471
:102640001113821B930B0895A1E21A2EAA1BBB1B28
:10265000FD010DC0AA1FBB1FEE1FFF1FA217B3076E
:10266000E407F50720F0A21BB30BE40BF50B661F84
:10267000771F881F991F1A9469F760957095809548
:1026800090959B01AC01BD01CF010895A29FB001BF
:10269000B39FC001A39F700D811D1124911DB29F96
:1026A000700D811D1124911D08955058BB27AA2734
:1026B0000E946D130C94E7140E94D91438F00E9404
:1026C000E01420F039F49F3F19F426F40C94D6144A
:1026D0000EF4E095E7FB0C94D014E92F0E94F81457
:1026E00058F3BA17620773078407950720F079F447
:1026F000A6F50C941A150EF4E0950B2EBA2FA02D0A
:102700000B01B90190010C01CA01A0011124FF279E
:10271000591B99F0593F50F4503E68F11A16F04099
:10272000A22F232F342F4427585FF3CF4695379598
:102730002795A795F0405395C9F77EF41F16BA0B5D
:10274000620B730B840BBAF09150A1F0FF0FBB1F0B
:10275000661F771F881FC2F70EC0BA0F621F731F54
:10276000841F48F4879577956795B795F7959E3FB1
:1027700008F0B0CF9395880F08F09927EE0F979542
:10278000879508950E94AC1408F481E008950E9492
:10279000DB130C94E7140E94E01458F00E94D91443
:1027A00040F029F45F3F29F00C94D01451110C949F
:1027B0001B150C94D6140E94F81468F39923B1F3F6
:1027C000552391F3951B550BBB27AA276217730757
:1027D000840738F09F5F5F4F220F331F441FAA1FEB
:1027E000A9F335D00E2E3AF0E0E832D091505040A7
:1027F000E695001CCAF72BD0FE2F29D0660F771F55
:10280000881FBB1F261737074807AB07B0E809F03A
:10281000BB0B802DBF01FF2793585F4F3AF09E3FBF
:10282000510578F00C94D0140C941B155F3FE4F321
:10283000983ED4F3869577956795B795F7959F5F02
:10284000C9F7880F911D9695879597F90895E1E04E
:10285000660F771F881FBB1F621773078407BA07AD
:1028600020F0621B730B840BBA0BEE1F88F7E09508
:1028700008950E9440146894B1110C941B1508959A
:102880000E94001588F09F5798F0B92F9927B751EB
:10289000B0F0E1F0660F771F881F991F1AF0BA9504
:1028A000C9F714C0B13091F00E941A15B1E0089533
:1028B0000C941A15672F782F8827B85F39F0B93F25
:1028C000CCF3869577956795B395D9F73EF49095B7
:1028D0008095709561957F4F8F4F9F4F0895E89435
:1028E00009C097FB3EF490958095709561957F4F58
:1028F0008F4F9F4F9923A9F0F92F96E9BB27939506
:10290000F695879577956795B795F111F8CFFAF415
:10291000BB0F11F460FF1BC06F5F7F4F8F4F9F4F46
:1029200016C0882311F096E911C0772321F09EE8A4
:10293000872F762F05C0662371F096E8862F70E00A
:1029400060E02AF09A95660F771F881FDAF7880FE4
:102950009695879597F90895990F0008550FAA0B3A
:10296000E0E8FEEF16161706E807F907C0F01216A2
:102970001306E407F50798F0621B730B840B950BA5
:1029800039F40A2661F0232B242B252B21F40895FA
:102990000A2609F4A140A6958FEF811D811D089597
:1029A00097F99F6780E870E060E008959FEF80EC02
:1029B000089500240A9416161706180609060895A5
:1029C00000240A9412161306140605060895092E0B
:1029D0000394000C11F4882352F0BB0F40F4BF2B7A
:1029E00011F460FF04C06F5F7F4F8F4F9F4F0895BA
:1029F00057FD9058440F551F59F05F3F71F04795B0
:102A0000880F97FB991F61F09F3F79F08795089594
:102A1000121613061406551FF2CF4695F1DF08C0B3
:102A2000161617061806991FF1CF869571056105D0
:102A300008940895E894BB2766277727CB0197F978
:102A400008950E9434150C94E7140E94D91438F0AC
:102A50000E94E01420F0952311F00C94D0140C94F3
:102A6000D61411240C941B150E94F81470F3959F32
:102A7000C1F3950F50E0551F629FF001729FBB2775
:102A8000F00DB11D639FAA27F00DB11DAA1F649F11
:102A90006627B00DA11D661F829F2227B00DA11DC4
:102AA000621F739FB00DA11D621F839FA00D611D4A
:102AB000221F749F3327A00D611D231F849F600D6B
:102AC000211D822F762F6A2F11249F5750409AF094
:102AD000F1F088234AF0EE0FFF1FBB1F661F771F20
:102AE000881F91505040A9F79E3F510580F00C94EB
:102AF000D0140C941B155F3FE4F3983ED4F38695F5
:102B000077956795B795F795E7959F5FC1F7FE2B8A
:102B1000880F911D9695879597F90895DB018F93FE
:102B20009F930E941113BF91AF91A29F800D911DA1
:102B3000A39F900DB29F900D11240895991B79E0E9
:102B400004C0991F961708F0961B881F7A95C9F73D
:102B50008095089597FB072E16F4009407D077FD13
:102B600009D00E94F51507FC05D03EF4909581959B
:102B70009F4F0895709561957F4F08950F9308308A
:102B800090F0982F872F762F652F542F432F322FB9
:102B900022270850F4CF220F331F441F551F661FF2
:102BA000771F881F991F0A95B2F70F91089597FB19
:102BB00010F8169400080F93083098F00850232F4F
:102BC000342F452F562F672F782F892F902DF4CF34
:102BD0000594979587957795679557954795379578
:102BE00027950A95AAF70F910895AA1BBB1B51E1DF
:102BF00007C0AA1FBB1FA617B70710F0A61BB70B6D
:102C0000881F991F5A95A9F780959095BC01CD0111
:102C10000895EE0FFF1F0590F491E02D099481E0D7
:102C200090E0F8940C94141610E0C2E6D0E004C0D2
:102C3000FE010E9409162196C336D107C9F7F89400
:022C4000FFCFC4
:102C42001027000000004F018D00DD014E01A3019D
:042C5200BB0136018B
:00000001FF
